:02000000FE29D7
:10000800DF00030E8301AE000A08AD008A01500824
:10001800A0000B1C22288312851D19282508031D02
:10002800192881010130A5002128851921282508D2
:10003800031921280108A100A5010B1083120C1C2B
:100048005228FF308F00A40A2408143A031D3828C8
:10005800A4012608270203183328A60338282708EE
:10006800260203183828A60A290803193E28303022
:100078008500512826082402031850282208003A2F
:10008800031D4928213085004F282208013A031D05
:100098004F2812308500512885010C102008D00007
:0E00A8002D088A002E0E8300DF0E5F0E090069
:1000B600510DD80DD90D5408D8025508031C550FFB
:1000C600D902D00DD10D0F30DC00510DD80DD90D50
:1000D6005408501C7428D8025508031C550FD90221
:1000E6007928D80755080318550FD907D00DD10D13
:1000F600DC0B6828501885285408D80755080318BB
:08010600550FD90700000800A5
:10010E0083125408003A031D95285508003A031D22
:10011E009528FF30D0007F30D100EE2883120313D4
:10012E00DD01D901D80151085004031900345108DA
:10013E005506DA00DA1BDD09DB01D51FAB28D40921
:10014E00D509D40A0319D50AD11FB228D009D1096D
:10015E00D00A0319D10A51085504DA00DA1BC72850
:10016E005B205B18DA28DD1F0034D009D109D00AD4
:10017E000319D10AD809D909D80A0319D90A0034A2
:10018E00D51FD628D11BD2285108D9005008D80027
:10019E00D101D001BA28D101D001D00A0034D10941
:1001AE00D009DB0AB728D80A0319D90A540858020D
:1001BE00031DBA2855085902031DBA28D901D801C2
:1001CE00D00A0319D10AD11FBA280000FF34080043
:0C01DE0083122C088A002B088200080005
:1001EA00EF208A110A128000840AAB0A0319AC0AAA
:0801FA00D003031DF5280800E5
:100202005B3083122102031C0B292108613C031C71
:100212000B290C2901292108383C03187F292108C0
:10022200A30021087D3C031818297D30A3003F302C
:10023200230203181E293F30A3002308613C031840
:1002420049292208003A031D42295E302302D300C5
:10025200D401031CD4035308D0005408D100D00D9C
:10026200D10D50102D30D00702300318013ED107B6
:100272005008AB005108AC00EF208A110A12A70007
:100282004829A7012608031D4829A901A2017E29A0
:100292005B302302031875292208013A031D6D29D8
:1002A20023085E3CD300D401031CD4035308D000BE
:1002B2005408D100D00DD10D50102D30D00702308E
:1002C2000318013ED1075008AB005108AC00EF20E3
:1002D2008A110A12A7007429A7012608031D74298E
:1002E200A9010130A2007E29260803197A29A70153
:1002F2007C290130A9000230A200A1010C290800CA
:1003020083122108453C0318872981292108383C9A
:100312000318E3292108A30021087D3C031893292F
:100322007D30A3003F302302031899293F30A300F8
:100332002308453C0318D9292208003A0319A629A3
:100342002208013A0319A629C9293F302302D00005
:10035200D101031CD1030230D4000030D500872024
:100362005008D2005108D300D20DD30D52105208BA
:100372002D3ED00002300318013E5307D100500831
:10038200AB005108AC00EF208A110A12A700D8294D
:10039200A7012608031DD829A9012808013A031D2F
:1003A200D429A201D6290130A2002208A800E229FC
:1003B20026080319DE29A701E0290130A90002302D
:0803C200A200A1018729080037
:1003CA008312AA0132302A020318FD29A101210849
:1003DA00031DF029EC2938302102031CF9292108D0
:1003EA00833C031CF929FB29AA01FC29AA0AE7294B
:0203FA000800F9
:1003FC008312A1010230A200A301A401A501A60150
:10040C00A7010130A800A9018316FF2390008312D5
:10041C000330831681000430950083128501CC30A3
:10042C00831685008B170B178B15083096008312DB
:10043C000C1083160C14013083129000E52101304E
:0E044C00A900051D2B2A01212C2A81212C2A12
:10045A0000340034003400340034003400340034F2
:10046A0000340034003400340134003402340034DF
:10047A0003340034043400340534003406340034C0
:10048A000734003408340034093400340A340034A0
:10049A000B3400340C3400340D3400340E34003480
:1004AA000F34003410340034113400341234003460
:1004BA001334003414340034143400341434003443
:1004CA001434003414340034143400341434003432
:02400E0004317B
:00000001FF
